40000020170704056137219    FELIPE GARCIA GUERRA          H          IProv costas (fra)             +0000000242.00                                                                                                                                          NEN
40000020170704057200004    CTA BBVA ACCIONES Y PREFERENTED          UProv costas (fra)             +0000000242.00                                                                                                                                          NEN
40000020170705056137502    JESUS GARCIA JIMENEZ          H          IProv costas (fra)             +0000000172.45                                                                                                                                          NEN
40000020170705057200004    CTA BBVA ACCIONES Y PREFERENTED          UProv costas (fra)             +0000000172.45                                                                                                                                          NEN
30000020170101C56137219    FELIPE GARCIA GUERRA          N+0000000000.00     02427475D       CL PETRA SANCHEZ, 2                      MADRID              28821                  912313118, 6                                                               ES
30000020170101C56137502    JESUS GARCIA JIMENEZ          N+0000000000.00     06551501C       C/ TOMAS BRETON 49 D- 2? B               MADRID              28045MADRID            659148500                                                                  ES
30000020170101C57200004    CTA BBVA ACCIONES Y PREFERENTEN+0000000000.00                                                                                                                                                                                    ES